:020000040800F2
:1020000000040020C3220008D12200080B2300088E
:10201000292300084723000865230008000000006A
:10202000000000000000000000000000CF360008A3
:10203000DD22000800000000993600083B28000857
:10204000E3220008E3220008E3220008E32200085C
:10205000193F0108E3220008E3220008E3220008F8
:10206000E3220008E3220008E3220008E32200083C
:10207000E3220008E3220008A3C00008E3220008CE
:10208000E3220008E3220008E3220008E32200081C
:10209000E3220008E3220008E3220008812001086F
:1020A000E3220008BF200108E3220008E322000821
:1020B000E3220008E3220008E3220008E3220008EC
:1020C000E3220008E3220008E3220008E3220008DC
:1020D000E3220008B5C00008E3220008E32200085C
:1020E000E3220008E3220008E3220008E3220008BC
:1020F000E3220008E3220008E3220008E3220008AC
:10210000E3220008E3220008E3220008E32200089B
:1021100025550108951F0108E3220008891F0108C1
:10212000E3220008E3220008E3220008E32200087B
:1021300000F002F800F0B5F80AA090E8000C824424
:102140008344AAF10107DA4501D100F0AAF8AFF201
:10215000090EBAE80F0013F0010F18BFFB1A43F085
:102160000103184788C20100A8C201000A444FF0C9
:10217000000C10F8013B13F0070408BF10F8014BE6
:102180001D1108BF10F8015B641E05D010F8016B2B
:10219000641E01F8016BF9D113F0080F1EBF10F88F
:1021A000014BAD1C0C1B09D16D1E58BF01F801CBB2
:1021B000FAD505E014F8016B01F8016B6D1EF9D535
:1021C0009142D6D37047000000230024002500264A
:1021D000103A28BF78C1FBD8520728BF30C148BF8A
:1021E0000B6070476E2916F0CA81702915F02F8098
:1021F000662919F0DA87652919F0D787672919F058
:10220000D487612919F0D38703681B0A28BF41F0DE
:102210008001692914F0A087642914F09D8775292D
:1022200014F09A876F2916F07D82782914F0FB87C5
:10223000E92916F01782E42916F01482F52916F020
:102240001182EF2916F07A82F82914F0FA870368D0
:10225000DB0928BF41F08001632915F0AE867329A0
:1022600015F0B386E32916F06186F32916F0668629
:10227000002070471FB515F0FFFB0400002000216F
:1022800018F08CFE401C60600020002118F09CFEBD
:10229000E0600020002118F0ADFE20611FBD10B5E8
:1022A00010BD16F035F91146FFF7E4FF00F076F89F
:1022B00016F0AEFC03B4FFF7F2FF03BC17F088F88A
:1022C00070470B4880470B4981F308880A4800474C
:1022D000FEE7FEE7FEE7FEE7FEE7FEE7FEE7FEE7D6
:1022E000FEE7FEE705480649044A064B7047000032
:1022F000C1220008805E00203121000880580020A3
:10230000805E00208058002070473F2080F31188B5
:1023100000BF04216848016001220260674808226A
:102320000261016100BFFEE73F2080F3118800BF1A
:1023300004216148016001220260604808220261B4
:10234000016100BFFEE73F2080F3118800BF042138
:102350005948016001220260584808220261016167
:1023600000BFFEE73F2080F3118800BF04215248E0
:10237000016001220260514808220261016100BF30
:10238000FEE74F4800210160416081604DA1C160BE
:102390005048416A41F08071416270473EB54E48F5
:1023A0000168474817384160FFF7EBFF0FF0C6FDA3
:1023B00011F0A3FD13F0B2F807F06CF907F07AFF03
:1023C00014F005FC0FF013FA0AF0A2FE00F006FA72
:1023D000424CE079800603D5414942480BF096FA19
:1023E000E079800605D53E493E480D3150380BF066
:1023F0008DFA042250213B480AF066FB394810222E
:102400004FF4A07150300AF05FFB2D4805212B38A6
:102410000AF08CFB002435480094019402940F23A9
:10242000314A022100680AF091FE31482E4A009498
:10243000019402940A233C32062100680AF086FEC9
:102440002C48284A0094019402940A23283A012136
:1024500000680AF07BFE2848234A00940194029405
:102460000A236432042100680AF070FE23481D4AE2
:102470000094019402940A23783A072100680AF034
:1024800065FE1F48184A0094019402940A238C3276
:10249000052100680AF05AFE1A48124A0094019475
:1024A00002940A23503A032100680AF04FFEBDE867
:1024B0003E400AF03EBE00001008014000100140FE
:1024C000C3080020554E4B4E4F574E2052455345A2
:1024D000540000000010024008ED00E0E826002053
:1024E000FCC2010808070020DC05002034D70108E1
:1024F000B4D9010894DB010850DB0108BCCF010806
:1025000044CA01085CD8010810B5F648416A41F098
:1025100080714162F44C45F255502060062001F074
:102520000EFD40F6FF70A0604AF6AA2020604CF62F
:10253000CC40206010BD9AB00C46014601A814F0B2
:10254000F1FFEA4804613F2080F31188FEE730B5CF
:102550008DB04FF40061E6480AF018FF18208DF89E
:102560001F0003208DF81E004FF48050ADF81C00B2
:1025700007A9E04801F013FC4FF4E1300390002478
:10258000ADF81040ADF81240ADF81440ADF8184069
:102590000820ADF81600D84D03A9284602F0E1FC4A
:1025A000ADF80440ADF806406915ADF80810ADF877
:1025B0000A4001A9284602F022FD0121284602F026
:1025C00033FD08A801F09FFD0998C821B0FBF1F088
:1025D000C649C8608860FF200AF0F5FE03200AF0B3
:1025E00011FF04200AF00EFF05200AF00BFF062061
:1025F0000AF008FF07200AF005FF0A200AF002FF90
:102600000B200AF0FFFE0C200AF0FCFE0D200AF061
:10261000F9FE0E200AF0F6FE0F200AF0F3FE10205D
:102620000AF0F0FE11200AF0EDFE12200AF0EAFE98
:1026300013200AF0E7FE14200AF0E4FE15200AF049
:10264000E1FE16200AF0DEFE17200AF0DBFE18205D
:102650000AF0D8FE19200AF0D5FE1A200AF0D2FEA0
:102660001C200AF0CFFE1D200AF0CCFE1E200AF02E
:10267000C9FE1F200AF0C6FE20200AF0C3FE21205A
:102680000AF0C0FE22200AF0BDFE23200AF0BAFEA6
:1026900024200AF0B7FE25200AF0B4FE27200AF015
:1026A000B1FE28200AF0AEFE29200AF0ABFE2A2057
:1026B0000AF0A8FE32200AF0A5FE33200AF0A2FE9E
:1026C00034200AF09FFE08200AF09CFE0DB0012085
:1026D00030BD08B504208DF8030003208DF80200FA
:1026E0004FF40050ADF800006946824801F057FBF6
:1026F00008BD08B504208DF8030003208DF8020002
:10270000C020ADF8000069467A4801F048FB08BDDA
:1027100008B504208DF8030003208DF80200400264
:10272000ADF800006946754801F039FB08BD08B5F1
:1027300004208DF8030003208DF802004FF4007090
:10274000ADF8000069466B4801F029FB08BD08B5EB
:1027500010208DF8030003208DF802004FF4004094
:10276000ADF800006946654801F019FB08BD10B5D9
:102770000121084601F01FFD0121042001F01BFD8D
:102780000121082001F017FD0121102001F013FDA7
:102790000121202001F00FFD0121080301F00BFDB4
:1027A0000121880301F007FD0121C80401F00EFD9D
:1027B0000121880401F00AFD0121080501F006FD50
:1027C0000121084601F0ECFC0121022001F0E8FCA7
:1027D0000121BDE81040402001F0E2BC10B500F03E
:1027E000E6FEFFF7C4FF46480021016090F8341070
:1027F00021F0200121F0400180F83410FFF7A7FFFD
:10280000FFF795FFFFF784FFFFF773FFFFF761FF07
:102810000FF01AFD01213B4801F052FB0020FFF7A9
:1028200096FE30B1FFF770FEBDE81040352001F094
:1028300048BA38213448FFF77EFE2DE9F0412B4C91
:102840006068401C60603F2787F311882F4E307806
:10285000401C3070002585F311884FF0E02000699E
:10286000D4E902010844A0602078401CC0B2207066
:10287000142825D125701D492348891C001F0AF002
:102880005BF90FF0A6FF6078401CC0B26070322880
:1028900016D165701E49086800F000400860184AAB
:1028A00092F83420120602D520F000400860086833
:1028B00018B90D4A4AF6AA2010604FF0004008608F
:1028C0000A490020891C0AF0A3F987F3118830789F
:1028D000401E30700F494FF08050086085F311881A
:1028E000BDE8F081001002400030004004000020EC
:1028F000F508002000100140005000400008014091
:10290000AC0800200001300018C30108A504002015
:102910000000002004ED00E010B5334C20880006D4
:102920000DD53F2080F311880AF0BEFF002181F30E
:102930001188A0F57F41FF3901D0C0B2A08010BD41
:10294000704730B585B0684601F0DDFB0198C821BD
:10295000B0FBF1F14FF0FF35B1F1807F0DD221F0E6
:102960007F414FF0E024491E61610F21284600F0AD
:102970002AF80020A061072020610121284600F0EC
:1029800022F805B030BD70474FF0E0210869174AC2
:10299000C303906802D48969401A7047D268896974
:1029A0001044401A704770B50F4C4FF6FF7505E0A4
:1029B00021880906FCD5C0F30800A0800AF074FF46
:1029C000A842F5D170BD0907090E002806DA00F00B
:1029D0000F0000F1E02080F8141D704700F1E020A6
:1029E00080F80014704700000050004004000020F0
:1029F000002801D0FAA07047FAA0704770B50646CB
:102A000034460AE014F02AFB0068405D000703D555
:102A1000284614F02BFB2070641C2578002DF1D182
:102A2000304670BD10B5FFF7E9FF0446ECA1204623
:102A300014F0FEFE38B1EBA1204614F0F9FE20B1EF
:102A40004FF0FF3010BD012010BD002010BD2DE95A
:102A5000F041FFF7D3FF0746E3A1384614F0E8FE44
:102A6000E24DE34C012638B1E2A1384614F0E0FE15
:102A700060B10020BDE8F081E87840F00800E8701F
:102A800084F8236184F81E610120F3E7E87840F0C0
:102A90000800E870002084F8230184F81E610120FA
:102AA000E8E710B514F0A2FCC0B2D14901280DD05E
:102AB00002280ED0002081F86D01CC48C27842F087
:102AC0000802C270012081F81E0110BD81F86D015D
:102AD000F3E781F86D01F0E710B50146C448202204
:102AE000D53014F0ACFCC148C17841F00801C17088
:102AF000BF49012081F8D40010BD10B514F076FC58
:102B0000B0F5803F0BD2BA49A1F8F500B748C278BA
:102B100042F00802C270012081F8D40010BD0020EC
:102B200010BD10B50146B2482022FA3014F087FCDF
:102B3000AE48C17841F00801C170AD49012081F86B
:102B4000F90010BD10B514F051FCB0F5803F0BD268
:102B5000A749A1F81A01A548C27842F00802C2703C
:102B6000012081F8F90010BD002010BD062804D016
:102B7000012802D008B1002070470120704710B52D
:102B800014F034FCC4B22046FFF7F0FF38B1984887
:102B900080F86441012180F86311012010BD0020FC
:102BA00010BD10B514F022FCC4B22046FFF7DEFFC2
:102BB00038B18F4880F86541012180F86311012008
:102BC00010BD002010BD8A48002180F86911012144
:102BD00080F86811C803884908600120704784485C
:102BE000012180F8691180F86811C8038249091F22
:102BF0000860012070470021814201D10120704707
:102C0000491C0529F8DB0020704710B514F0EEFBD5
:102C1000C4B22046FFF7EFFF30B175482438447046
:102C200001210170012010BD002010BD10B514F06D
:102C3000DDFBC4B22046FFF7DEFF30B16C4824381C
:102C4000C47101218171012010BD002010BD10B59B
:102C500014F0CCFBC4B22046FFF7CDFF30B164487E
:102C60002438447301210173012010BD002010BDE0
:102C700010B514F0BBFBC4B22046FFF7BCFF30B167
:102C80005B482438C47401218174012010BD0020E8
:102C900010BD10B514F0AAFBC4B22046FFF7ABFF7D
:102CA00030B153482438447601210176012010BD0B
:102CB000002010BD10B514F099FBC4B22046FFF7F8
:102CC0009AFF30B14A482438C47701218177012026
:102CD00010BD002010BD10B514F088FB4449243904
:102CE000C8700120087010BD10B514F07FFB40497A
:102CF000243948720120887110BD10B514F076FB9C
:102D00003B492439C8730120087310BD10B514F075
:102D10006DFB3749243948750120887410BD10B502
:102D200014F064FB32492439C8760120087610BDBE
:102D300010B514F05BFB2E49243981F821000120E5
:102D4000887710BD10B5FFF76DFE411C05D02849EE
:102D5000243988700120087010BD002010BD10B506
:102D6000FFF760FE411C05D021492439087201207B
:102D7000887110BD002010BD10B5FFF753FE411C37
:102D800005D01B49243988730120087310BD002029
:102D900010BD10B5FFF746FE411C05D0144924397B
:102DA00008750120887410BD002010BD10B5FFF714
:102DB00039FE411C05D00E49243988760120087659
:102DC00010BD002010BD10B5FFF72CFE411C15D022
:102DD0000749243981F820000120887710BD0000C0
:102DE0004F4E00004F464600464D0000041500209F
:102DF000221100204E540000140801400020EDE78D
:102E000010B514F0F3FA411E632906D8FE49A1F863
:102E10005F01012081F85E01E0E70020DEE710B5E8
:102E200014F0E4FAB0F5803F06D2F749A1F8210189
:102E3000012081F81E01D1E70020CFE710B514F082
:102E4000D5FAB42805D8F0492D3948710120087009
:102E5000C4E70020C2E710B514F0C8FAB0F5803F0F
:102E600006D2E9492D39A1F8010001200870B5E723
:102E70000020B3E710B514F0B9FAB0F5803F06D2E0
:102E8000E1492D39A1F8030001200870A6E70020D0
:102E9000A4E710B5FFF7C6FD411C05D0DA492D396E
:102EA00088710120087099E7002097E710B514F0A9
:102EB0009DFAB0F5803F06D2D349A1F83A0101202E
:102EC00081F839018AE7002088E710B514F08EFAFE
:102ED000B0F5803F06D2CC49A1F83C01012081F831
:102EE00039017BE7002079E710B514F07FFA032859
:102EF00006D8C54981F83E01012081F839016DE706
:102F000000206BE710B5C04C01460722601C14F08E
:102F100063FC0120207061E710B58EB004462246A4
:102F2000BAA101A814F0B2F8BE48417A890716D5B3
:102F3000406A10B1BC49884211D13F2080F311880A
:102F400049200AF0F0F9FFF71FFD0AF034FC01A850
:102F50000AF024FD0AF0B4F9002080F31188AA4891
:102F600020222146083014F06AFAA7480121017096
:102F7000AE48C17841F00801C17001200EB02DE7C4
:102F800010B50146A0482022283014F058FA9E4976
:102F900001200870A548C17841F00801C1700120E6
:102FA0001CE710B5014698482022483014F047FA33
:102FB0009549012008709D48C17841F00801C17011
:102FC00001200BE710B501468F4807226B3014F043
:102FD00003FC8D49012081F86A00FFE610B5014627
:102FE00089482022723014F02AFA8749012081F89A
:102FF0006A008E48C17841F00801C1700120EDE6F9
:1030000010B5014680482022923014F018FA7E490B
:10301000012081F86A008548C17841F00801C1703B
:103020000120DBE610B5014677482022B23014F0CB
:1030300006FA7549012081F86A007C48C17841F0A0
:103040000801C1700120C9E630B58DB00C4614F0FE
:10305000CDF90546E07820F08000E0702A4674A1A2
:10306000684614F013F86F48417A890716D5406A0C
:1030700010B16D49884211D13F2080F31188492059
:103080000AF051F9FFF780FC0AF095FB68460AF058
:1030900085FC0AF015F9002080F31188052D16D85B
:1030A00065B9E07840F08000E07064485E4B002233
:1030B000016800680968CC686149A04761484570AB
:1030C0001E2181700121017001200DB030BD002052
:1030D000FBE710B514F08AF94FF4B461884201DDC2
:1030E000084602E0052800DA05204749A1F81F013B
:1030F000012081F81E0171E610B50C4614F076F936
:10310000012801D0002069E6A07840F01000A070EE
:10311000012063E6887840F08000887001207047C5
:10312000C87840F00100C87001207047C87840F0AE
:103130000400C87001207047C87840F00800C870CB
:1031400001207047C87840F00200C8700120704725
:10315000887840F04000887001207047C87840F0BF
:103160001000C87001207047C87840F02000C87077
:1031700001207047C87840F04000C87001207047B7
:103180002DE9F0438DB00646771D4FF0000987F812
:1031900000902DA1384614F053FA1B4C94F82301EB
:1031A00001287BD029A1384614F04AFA2B482CA1DB
:1031B00043780278684613F069FF6946384614F090
:1031C0003FFAB4F821012AA1C3B2020A684613F0FB
:1031D0005DFF6946384614F033FA1A4A29A17A3A53
:1031E000684613F053FF6946384614F029FA154A29
:1031F00027A1553A684613F049FF6946384614F04E
:103200001FFAB4F8F5204AE02211002053657447F4
:1032100070727341706E3120636F6D6D616E643DCD
:1032200025730000E8260020D002002004150020AD
:10323000434F4E4649473D2575000000B4D901086B
:1032400040C40108711200207B0D0A0050524F54F7
:103250004F434F4C3D4E543B0D0A0000FAC201084B
:103260004657205645523D25755F25753B0D0A0092
:10327000465720564552204E45573D25755F2575CA
:103280003B0D0A0049503D25733B0D0A000000002C
:103290005349503D25733B0D0A00000089E05DA1B4
:1032A000684613F0F3FE6946384614F0C9F9B4F8DD
:1032B0001A215BA1684613F0E9FE6946384614F00E
:1032C000BFF95A4A5AA1684613F0E0FE69463846EB
:1032D00014F0B6F9554A59A16A32684613F0D6FE81
:1032E0006946384614F0ACF9621C57A1684613F0E1
:1032F000CDFE6946384614F0A3F94C4A55A1633215
:10330000684613F0C3FE6946384614F099F9474DF4
:1033100053A1343D68462A8813F0B8FE6946384602
:1033200014F08EF96A8853A1684613F0AFFE69461F
:10333000384614F085F92A7953A1684613F0A6FEA1
:103340006946384614F07CF9B4F83A2153A168462E
:1033500013F09CFE6946384614F072F9B4F83C212B
:1033600052A1684613F092FE6946384614F068F997
:103370006879FFF73DFB024650A1684613F086FED0
:103380006946384614F05CF9002405F1080804EB9E
:10339000440008EB4005621C6B784DA1684613F0B1
:1033A00075FE6946384614F04BF96878022805D056
:1033B00010E04BA1384614F043F9F7E6A878FFF780
:1033C00017FB02464AA1684613F060FE694638467C
:1033D00014F036F9641C062CD9D36946384614F02B
:1033E0002FF947A1384614F02BF9384614F0BEF8EF
:1033F0003844841B63203070A6F80140A6F803907F
:103400002146304600F019F9A6F803000DB0204619
:10341000BDE8F083504F52543D25753B0D0A000026
:1034200053504F52543D25753B0D0A002A11002080
:1034300041504E313D25733B0D0A000041504E3244
:103440003D25733B0D0A000042313D25733B0D0ABB
:103450000000000042323D25733B0D0A00000000D1
:1034600053544F52452054494D453D25753B0D0A57
:103470000000000053544F524520444953543D2509
:10348000753B0D0A0000000053544F524520414E39
:10349000474C453D25753B0D0A00000053454E4401
:1034A0002054494D453D25753B0D0A0053454E447A
:1034B00020444953543D25753B0D0A004E4156208A
:1034C00046494C5445523D25733B0D0A000000000F
:1034D00025755253343835443D25753B0D0A00009F
:1034E00050524F544F434F4C3D464D3B0D0A000048
:1034F0004D52392052454C453D25733B0D0A000085
:103500007D0000000CB50022019200923448016851
:1035100041F4803101604FF4A063016801F400318F
:1035200000910199491C0191009911B901999942A1
:10353000F3D10168890302D50121009100E00092D6
:103540000099012900D0FEE726490A6842F01002DE
:103550000A600A6822F003020A600A6842F0020266
:103560000A604168416041684160416841F480619E
:103570004160416821F47C114160416841F4E811E7
:103580004160016841F08071016001688901FCD5EA
:10359000416821F003014160416841F0020141604E
:1035A0004168C1F381010229FAD10CBDAAE70C4898
:1035B000016841F00101016041680B4A114041601E
:1035C00001680A4A11400160016821F4802101600C
:1035D000416821F4FE01416000218160E6E70000BE
:1035E00000100240002002400000FFF8FFFFF6FE3E
:1035F00010B54FF0FF32074B07E010F8014B544075
:10360000E4B253F8244084EA1222491E4C1CF4D13F
:10361000D04310BD44C401081448FF21017041701B
:103620007047124A1178414011485378405C584025
:1036300010701048405C5070704738B504460D4615
:1036400000200090FFF7E8FF03E014F8010BFFF7FC
:10365000E8FF6D1E681CF8D1044841788DF8001011
:1036600000788DF80100BDF8000038BDD8020020B8
:1036700044C8010844C90108EFF3108072B6154927
:103680008A68FF231B041A438A604A681B029A4314
:103690004A6080F31088704700B53F2080F311889E
:1036A00009F086FD002803D180F3118801BC004792
:1036B00081B001231B06084A08490EB484B001B446
:1036C0000620C0430047002080F3118800DF09B0C6
:1036D00001BC004718ED00E0F3D10008C736000830
:1036E000016821F0010101600021016041608160F9
:1036F000C1606C4B6B4AC11A803A98424AD01ADCBE
:10370000694BA0EB030198423AD00BDC67494018A3
:103710002CD014282FD0282803D1506840F4706092
:1037200050607047142930D02829FAD1506840F4ED
:103730007000506070475E48B1F56C7F34D00ADC91
:10374000B1F5627F2BD0B1F5677FF3D1016841F00D
:10375000F00101607047B1F5717F2AD0B1F5767F35
:10376000F8D1016841F4702101607047506840F061
:103770000F0050607047506840F0F0005060704794
:10378000506840F4704050607047506840F47020BA
:1037900050607047506840F070605060704701683A
:1037A00041F00F0101607047016841F470610160F0
:1037B0007047016841F470410160704730B502689C
:1037C00047F6F0739A430C6A8B682343D1E90445AA
:1037D0002C4323438C692343CC6923434C6A234302
:1037E0008C6A234313430360CA6842600A6882609C
:1037F0004968C16030BD0021016041608160C160E5
:10380000016141618161C161016241628162704710
:10381000002904D0016841F001010160704701688E
:1038200021F0010101607047002A03D002680A43B9
:103830000260704702688A4302607047406880B245
:10384000704702460020D10003D51949091F0968B5
:1038500002E0154944390968114200D0012070473F
:10386000C10002D51249086070470F4944394860C9
:10387000704702460020D10003D50D49091F096891
:1038800002E0094944390968114200D0012070471B
:10389000C10002D5064908607047034944394860B1
:1038A000704700008000024044000240F8FFFDBF66
:1038B00004040240F74A116801F038010143116025
:1038C0007047F4490A6822F008020A600A68024355
:1038D0000A607047EF490A6822F010020A600A681D
:1038E00002430A607047EB48EB494160EB49416095
:1038F0007047E848016941F0800101617047042088
:10390000E449CA68D20701D001207047CA6852074B
:1039100001D502207047C968C906FBD5032070474E
:1039200008B5FF20009002E00098401E009000982B
:103930000028F9D108BD10B50446FFF7E0FF04E008
:10394000FFF7EEFFFFF7DBFF641E012801D1002C1B
:10395000F6D1002C00D1052010BD70B5054640F60B
:10396000FF763046FFF7E7FF042813D1C94C2069E2
:1039700040F0020020616561206940F04000206154
:103980003046FFF7D8FF012804D0216941F6FD72C7
:103990001140216170BD70B540F6FF752846FFF7F4
:1039A000CAFF042812D1BB4C206940F004002061FA
:1039B000206940F0400020612846FFF7BCFF012845
:1039C00004D0216941F6FB721140216170BD70B5D0
:1039D00040F6FF752846FFF7AEFF042818D1AD4C1E
:1039E000AD48A060AD48A060206940F02000206193
:1039F000206940F0400020612846FFF79CFF41F617
:103A0000EF75042805D0012802D0216929402161E1
:103A100070BD206941F6DF7108402061206940F0E7
:103A2000100020619E49A52008800F20FFF783FF2A
:103A30000128EDD021692940216170BD2DE9F041B7
:103A400006460D460F20FFF776FF042811D1914C52
:103A5000206940F00100206135800F20FFF76BFFE7
:103A600041F6FE77042806D0012802D021693940AA
:103A70002161BDE8F081280C70800F20FFF75BFF0B
:103A80000128F6D0216939402161F2E770B5064678
:103A90000D460F20FFF74FFF04280FD17D4C206902
:103AA00040F00100206135800F20FFF744FF01281E
:103AB00004D0216941F6FE721140216170BD70B5DC
:103AC00006460D460F20FFF736FF042813D1714C30
:103AD0007148A0607148A060206940F0100020612A
:103AE00035800F20FFF727FF012804D0216941F618
:103AF000EF721140216170BD2DE9F041C043C4B2A5
:103B0000C0F30725C0F30746070E0F20FFF713FF8A
:103B10000428AED1DFF87C815F49C8F808105F49FE
:103B2000C8F80810D8F8101041F01001C8F81010AB
:103B3000FF2C05D05A48083004800F20FFF7FBFE09
:103B4000042807D1FF2D05D055480A3005800F20E5
:103B5000FFF7F1FE042807D1FF2E05D050480C30A6
:103B600006800F20FFF7E7FE042807D1FF2F05D0BE
:103B70004B480E3007800F20FFF7DDFE012806D0EE
:103B8000D8F8101041F6EF721140C8F8101070E725
:103B900070B5054640F6FF763046FFF7CCFE0428A8
:103BA00018D13C4C3C48A0603C48A060206940F0E3
:103BB00020002061206940F0400020613046FFF77E
:103BC000BAFE41F6DF71042805D0012802D022692F
:103BD0000A40226170BD206908402061206940F0E0
:103BE000100020612E4815B10021018001E0A521BF
:103BF00001803046FFF79FFE0128EBD0216941F696
:103C0000EF721140216170BD2DE9F04105460E466D
:103C10001746204C2048A0602048A0600F20FFF7E6
:103C20008AFE042814D1206940F010002061354339
:103C30001B493D43891C45F0F80008800F20FFF721
:103C40007AFE012804D0216941F6EF72114021610A
:103C50000FE71048C069800870470E48006A704737
:103C600000200C49C969890700D501207047002050
:103C700008490968890600D501207047054A0029CE
:103C800003D01169014311617047116981431161CA
:103C9000704700000020024023016745AB89EFCD4B
:103CA00000F8FF1F01460020074A012904D0D2680E
:103CB0000A42EDD00120EBE7D169C907E8D0012025
:103CC000E6E70149C860E3E70020024010B5964AE4
:103CD000811A1315D414904237D010DC9349401840
:103CE0001FD0984227D0A0424DD10121102000F0D2
:103CF00078FA0021BDE81040102000F072BA994215
:103D00002DD0A14235D0B1F5406F3CD101210C023C
:103D1000204600F066FA2046BDE81040002100F081
:103D200060BA0121042000F05CFA0021BDE81040D7
:103D3000042000F056BA0121082000F052FA0021B8
:103D4000BDE81040082000F04CBA0121202000F00E
:103D500048FA0021BDE81040202000F042BA0121BD
:103D6000402000F03EFA0021BDE81040402000F065
:103D700038BA0121802000F034FA0021BDE810405B
:103D8000802000F02EBA10BD10B50121084600F0C9
:103D900028FA0021BDE81040012000F022BA2DE9E8
:103DA000F0410022CC7804F00F03E40601D58C78B2
:103DB00023430C784FF00F0714F0FF0F4FF0010C66
:103DC0001CD005680CFA02F40E882640A64211D1D8
:103DD000960007FA06F825EA080503FA06F848EA05
:103DE0000505CE78282E02D0482E02D002E044618C
:103DF00000E00461521C082AE4D305600A88FF2A07
:103E00001ED94568002202F108060CFA06F40E8855
:103E10002640A64210D1960007FA06F825EA0805C2
:103E200003FA06F848EA0505CE78282E00D1446149
:103E3000CE78482E00D10461521C082AE3D3456095
:103E4000BDE8F0814FF6FF710180022181700421ED
:103E5000C17070470246002092680A4200D00120DB
:103E60007047806880B2704702460020D2680A42DC
:103E700000D001207047C06880B270470161704770
:103E800041617047002A01D001617047416170476C
:103E9000C160704741F480328261816182618169D1
:103EA0008069704710B5224B1A684FF68074224023
:103EB00042EA00100843186010BD1E49C8617047EF
:103EC000F0B51B4D6B68C0F30342440D260184B26C
:103ED000C0F30157B440032F07D0C0020CD5032014
:103EE0009040834343F0706209E023F07062686899
:103EF00020F07060686002E0A34343F0706201B19B
:103F000022436A60F0BD10B58A07120F0F23934059
:103F100021F00304064921448C689C438C608B6823
:103F2000904003438B6010BD0014014000F8FEBFB9
:103F300000000140000020420D49086070470C4914
:103F4000486070470A498860704709494AF6AA20C4
:103F50000860704706494CF6CC400860704701463F
:103F60000020034AD2680A4200D0012070470000B6
:103F700000300040B348016841F001010160416830
:103F8000B14A114041600168B04A114001600168C6
:103F900021F480210160416821F4FE01416000218B
:103FA00081607047A7490A6822F480320A600A6873
:103FB00022F480220A60B0F5803F07D0B0F5802F50
:103FC00003D1086840F4A02008607047086840F4F6
:103FD000803008607047034600205909994A01293A
:103FE0000AD002290AD0516A03F01F02012393402C
:103FF0000B4200D0012070471168F5E7116AF3E722
:1040000018B5002000904FF4A0643120FFF7E3FFC3
:104010000099491C009110B90098A042F5D13120B7
:10402000FFF7D9FF08B1012018BD002018BD854A4F
:10403000116821F0F80141EAC0001060704784491E
:10404000086070477F4B5A6822F47C120843104383
:10405000586070477E49086670477A4A516821F077
:1040600003010143516070477648406800F00C003E
:104070007047744A516821F0F00101435160704764
:10408000704A516821F4E0610143516070476D4A04
:10409000516821F4605141EAC00050607047694A9C
:1040A000002903D0517A014351727047517A8143FC
:1040B000517270476649D83108607047614A51684B
:1040C00021F440410143516070475E490022203194
:1040D0000A7001F82029012805D0042802D1052002
:1040E00081F820007047012081F82000704759496D
:1040F0000860704753490A6A02430A62704755498B
:1041000044390860704710B54E4A516801F00C01FF
:10411000514B002927D0042927D0082927D0036034
:10412000516801F0F00109094C4B5C5C0168E14009
:104130004160546804F4E064240A1C5D21FA04F42C
:104140008460546804F46054E40A1B5DD940C16083
:10415000526802F44042920B404B1B1F9A5CB1FB29
:10416000F2F1016110BD0360DAE70360D8E751683E
:1041700001F47011022303EB9141536803F480337F
:1041800033B153689B0307D5354B59430160C7E7EB
:10419000334B59430160C3E72F4B59430160BFE7DD
:1041A000284A002903D05169014351617047516980
:1041B000814351617047234A002903D0916901432B
:1041C0009161704791698143916170471D4A00294F
:1041D00003D0D1690143D1617047D1698143D16175
:1041E0007047184A002903D0D1680143D160704755
:1041F000D1688143D1607047124A002903D0116908
:104200000143116170471169814311617047114980
:104210004039086070470E49C86470470949C87141
:1042200070470848416A41F0807141627047014619
:104230000020044A92680A4200D0012070470149D8
:1042400088727047001002400000FFF8FFFFF6FE82
:10425000000042428004424200127A00DE02002046
:1042600000093D0010B5A949401810D0B0F5806F85
:1042700018D0B0F5784F20D101210C032046FFF76C
:10428000B0FF2046BDE810400021FFF7AABF012182
:104290008C032046FFF7B0FF2046BDE81040002108
:1042A000FFF7AABF0121CC032046FFF7A5FF204658
:1042B000BDE810400021FFF79FBF10BD30B5028858
:1042C00002F441530A884C88CD8822438C882C43C1
:1042D00022430C8922434C8922438C892243CC8976
:1042E00022431A430280828B22F400628283098A6D
:1042F000018230BDF0B585B005460C460220002194
:104300000126AA8B4FF240031A40AA8302222A8474
:10431000AF8B2289022A20D0A08800B102266846ED
:10432000FFF7F1FEE088B0F5007F2CD02089710105
:104330004143009800EB80004000B0FBF1F0401DCD
:1043400080B20A21B0FBF1F000F00101401AC0F385
:104350004F004FF6FF7202EA0121821EFE2A01D3AE
:1043600002200021E288084302432A8420886188D1
:1043700062890843A18811430843384340F4006030
:10438000A88305B0F0BD0098218900EB80004000B3
:104390000902B0FBF1F0401D80B2D2E7002101809C
:1043A00041808180C180018141818181C18107215A
:1043B000018270470021018041808180C1800222FA
:1043C000028141817047002904D0018841F04001F9
:1043D00001807047018821F0400101807047002969
:1043E00004D0818B41F4806181837047818B21F4FB
:1043F000806181837047090901238B4099B2002AAB
:1044000003D082880A438280704782888A438280F0
:104410007047002A03D082880A43828070478288CE
:104420008A43828070478181704780897047A1F5F7
:104430007E42FF3A04D0018841F4807101807047C8
:10444000018821F4807101807047002904D081889F
:1044500041F0040181807047818821F0040181804E
:104460007047028822F40062028002880A430280B8
:104470007047018841F4805101807047002904D0C1
:10448000018841F4005101807047018821F40051F6
:1044900001807047012901D0008B7047808A7047E6
:1044A000008A7047B1F5804F04D0018821F4804123
:1044B00001807047018841F48041018070470246C5
:1044C000002012890A4200D001207047C9430181AF
:1044D000704730B50246002001F00F03012505FAB0
:1044E00003F4A3B2090905FA01F4A4B291882140AA
:1044F00012891A4202D0002900D0012030BD01F0FB
:104500000F0201219140C9430181704700C8FFBFDC
:1045100010B5FE4A811A1315D41490424FD013DC03
:10452000B0F1804F2DD0FA49401834D098423CD099
:10453000A04258D101210820FFF75EFE0021BDE80E
:1045400010400820FFF758BE994242D0B1F58E3F87
:104550000DD0B1F5923F46D101214C032046FFF723
:1045600040FE2046BDE810400021FFF73ABE012181
:104570002046FFF736FE2046BDE810400021FFF739
:1045800030BE01210846FFF737FE0021BDE810408C
:104590000120FFF731BE01210220FFF72DFE00218F
:1045A000BDE810400220FFF727BE01210420FFF7DD
:1045B00023FE0021BDE810400420FFF71DBE0121AD
:1045C0001020FFF719FE0021BDE810401020FFF772
:1045D00013BE01212020FFF70FFE0021BDE810408F
:1045E0002020FFF709BE10BD028802F08F02028072
:1045F000CA884B881A4303881A4302808A888285B6
:104600000A880285C34A904202D0C34A904201D12F
:10461000097A018601218182704730B5028C22F02F
:1046200001020284058C8388028B22F070020C88C0
:10463000144325F002020D8915434A882A43CD8888
:104640008586B44DA84202D0B34DA8420FD122F0C6
:1046500008054A892A4322F004058A882A4323F45C
:10466000014323F402438D891D43CB892B4383806F
:104670000483028430BD70B5028C22F010020284E3
:10468000028C8388048B24F4E0460D884FF6FF7477
:1046900004EA0525354322F020020E8904EA0616B5
:1046A00016434A8804EA02123243CE880687994E9E
:1046B000B04202D0984EB04217D122F080024E890B
:1046C00004EA0616164326F040068A8804EA021217
:1046D000324323F4044323F408438E8904EA860614
:1046E0001E43C98904EA810333438380058302841E
:1046F00070BD70B5028C22F480720284028C8388B3
:10470000848B24F070040D88254322F400720E89F6
:104710004FF6FF7404EA062616434A8804EA02228A
:104720003243CE8886877B4EB04202D07A4EB0426A
:1047300017D122F400664A8904EA0222324322F4A5
:1047400080668A8804EA0222324323F4104323F469
:1047500020438E8904EA06161E43C98904EA011320
:10476000334383808583028470BD70B5028C22F44C
:1047700080520284058C8288838B23F4E0460C8867
:104780004FF6FF7303EA0424344325F400560D89E1
:1047900003EA053535434E8803EA06362E43CD88B5
:1047A000A0F840505B4DA84202D05B4DA84205D115
:1047B000C2F30D05898903EA81122A43828084832A
:1047C000068470BD828B22F440628283828B4FF616
:1047D000FF7303EA01210A4382837047F0B5048C1A
:1047E00024F480540484878B068C4FF6FF7404EA0B
:1047F000013527F4734704EA022104EA0332114326
:10480000394326F400522A4342F4805281830284C1
:10481000F0BD828B22F00C028283828B0A4382835A
:104820007047F0B5048C24F480740484868B058C66
:104830004FF6FF7707EA012426F0F30607EA031193
:104840001143314325F40072224342F48072818384
:104850000284F0BD028B22F440620283028B4FF689
:10486000FF7303EA01210A430283704770B5048C89
:1048700024F010040484058B068C4FF6FF7404EAC0
:10488000011125F4734504EA03332B4304EA0222A1
:104890001A4326F020030B4343F0100102830184E6
:1048A00070BD028B22F00C020283028B0A4302834A
:1048B000704770B5048C24F001040484058B048CCB
:1048C00025F0F3054FF6FF7606EA031313432B4357
:1048D00024F002020A4342F001010383018470BD07
:1048E00070B506460C4625886188A2882389002D6C
:1048F00014D0042D1AD0082D20D03046FFF76EFFBB
:10490000E1883046BDE870405CE7000000100040E0
:1049100000FCFFBF002C0140003401403046FFF78F
:10492000C8FFE1883046BDE87040BAE73046FFF77F
:104930009DFFE1883046BDE870408BE73046FFF7C9
:1049400070FFE1883046BDE8704062E72DE9F04134
:1049500007460C46002501266188002900D1022562
:10496000A288012A00D102262088238988B13846EE
:10497000FFF77CFFE1883846FFF76CFF238932465A
:1049800029463846FFF795FFE1883846BDE8F041F3
:1049900087E73846FFF78DFFE1883846FFF781FF4C
:1049A0002389324629463846FFF760FFE1883846BA
:1049B000BDE8F0414EE710B50A884B88CC881A4311
:1049C0008B8823431A430B891A434B8989891A43DD
:1049D0000A43A0F8442010BD4FF6FF7181800021EA
:1049E0000180C180418001727047002101804180B7
:1049F0008180C180018141818181C1817047002115
:104A00000180418001228280C180018170470021A4
:104A1000018041808180C180018141818181704715
:104A2000002904D0018841F001010180704701880C
:104A300040F2FE32114001807047002905D030F865
:104A4000441F41F400410180704730F8441FC1F316
:104A50000E0101807047002A03D082890A438281B7
:104A6000704782898A4382817047818270471143EF
:104A7000A0F848107047002A03D082890A43828137
:104A8000704782898A4382817047018921F007013A
:104A900001817047028922F070020A430281704747
:104AA00000B503461846FFF7F5FF188940F00700E8
:104AB000188100BD70B50D4604461146602D0CD01E
:104AC00001222046FFF7F5FE29462046FFF7E2FFC8
:104AD000208940F00700208170BD01222046FFF7A9
:104AE000C5FEF1E710B50489E4B211434FF6FF7239
:104AF00002EA032211432143018110BD10B504468F
:104B00002046FFF7EFFF208920F0070040F0070064
:104B100020F0700040F07000208110BD10B50446F8
:104B20002046FFF7DFFF208940F48040208110BD40
:104B3000018582827047028840F28F331A400A430F
:104B40000280704770B50589048B068C25F0070537
:104B50000D434FF6FC410C4040F201110C4326F08E
:104B600022064FF6FF7101EA03111143314305811B
:104B70000483018470BD028B22F070020A43028319
:104B80007047028B22F4E0424FF6FF7303EA0121E3
:104B9000114301837047828B22F070020A438283A3
:104BA0007047828B22F4E0424FF6FF7303EA012143
:104BB000114381837047002904D0018841F08001AE
:104BC00001807047018840F27F32114001807047B8
:104BD000002904D0818841F00401818070478188D8
:104BE00021F0040181807047002904D0818841F0C0
:104BF000080181807047818821F008018180704719
:104C0000002904D0818841F00101818070478188AA
:104C100021F0010181807047028B22F008020A43D3
:104C200002837047028B22F400624FF6FF7303EA9F
:104C30000121114301837047828B22F008020A434D
:104C400082837047828B22F400624FF6FF7303EA7F
:104C50000121114381837047028B22F004020A4331
:104C600002837047028B22F480624FF6FF7303EADF
:104C70000121114301837047828B22F004020A4311
:104C800082837047828B22F480624FF6FF7303EABF
:104C90000121114381837047028B22F080020A4375
:104CA00002837047028BC2F30E024FF6FF7303EAD2
:104CB0000121114301837047828B22F080020A4355
:104CC00082837047828BC2F30E024FF6FF7303EAB2
:104CD0000121114381837047028C22F002020A43B2
:104CE00002847047028C22F008020A430284704753
:104CF000028C22F020024FF6FF7303EA01111143E8
:104D000001847047028C22F080024FF6FF7303EAA1
:104D10000111114301847047028C22F400724FF696
:104D2000FF7303EA0121114301847047028C22F4CE
:104D300000624FF6FF7303EA0121114301847047BB
:104D4000028C22F400524FF6FF7303EA0131114343
:104D50000184704710B5038C01248C40A343038465
:104D6000038C8A401343038410BD10B5038C0424C4
:104D70008C40A3430384038C8A401343038410BDF7
:104D800010B5038C01248C40A3430384002912D066
:104D9000082910D0091FC1F34E010844816948F663
:104DA000FF731940816181694FF6FF7303EA0222A4
:104DB0001143816110BD00EB510081694FF68F7383
:104DC0001940816181691143816110BD002904D0BE
:104DD000018841F0020101807047018840F2FD32F4
:104DE000114001807047002904D0018841F004017E
:104DF00001807047018840F2FB321140018070470A
:104E0000002904D0818841F0800181807047818829
:104E100021F0800181807047028840F2F7331A4008
:104E2000028002880A4302807047828822F0700262
:104E3000828082880A4382807047028922F00702BA
:104E4000028102890A4302817047028922F08002AE
:104E5000028102890A4302817047818470478185FB
:104E60007047818670470187704781877047A0F837
:104E7000401070470288D2B2028002880A43028042
:104E80007047808E7047008F7047808F7047B0F8F2
:104E900040007047808C7047008D704702460020AC
:104EA000128A0A4200D001207047C943018270472C
:104EB00002460020138A0B4092890A40002B02D040
:104EC000002A00D001207047C943018270470000CA
:104ED00010B5C64A811A131590422BD00FDCC44975
:104EE00040181CD098423BD1040201212046FFF714
:104EF00083F92046BDE810400021FFF77DB99942B3
:104F000023D0B1F56C4F2BD101218C032046FFF744
:104F100068F92046BDE810400021FFF762B9012181
:104F20004C042046FFF768F92046BDE810400021F8
:104F3000FFF762B90121CC042046FFF75DF9204656
:104F4000BDE810400021FFF757B901210C052046AC
:104F5000FFF752F92046BDE810400021FFF74CB999
:104F600010BD30B585B004460D46208A4CF6FF7161
:104F70000840E98801432182A1894EF6F3100140DF
:104F8000A8882A8910436A890A431043A081A08A0D
:104F90004FF6FF410840A9890143A1826846FFF707
:104FA000B2F89448844201D1039800E0029800EBE3
:104FB000C00101EB001029688900B0FBF1F0642307
:104FC000B0FBF3F109010A096FF018056A4300EB21
:104FD0008200322202EB0010B0FBF3F000F00F0071
:104FE0000843208105B030BD4FF416510160002107
:104FF0008180C18001810C2242818181704710B57E
:10500000038A4FF2FF0213400A884C8822438C889F
:10501000C9880C4322431A43028210BD002101803B
:1050200041808180C1807047002904D0818941F48A
:10503000005181817047818921F40051818170473D
:1050400010B5C1F3421301F01F040121A140012B4F
:1050500007D0022B07D014303AB102680A4302602D
:1050600010BD0C30F8E71030F6E702688A430260A2
:1050700010BD002A03D0828A0A4382827047828A46
:105080008A4382827047028A22F00F020282028AD9
:105090000A4302827047828922F4006282818289F7
:1050A0000A4382817047002904D0818941F00201BE
:1050B00081817047818921F0020181817047028AD4
:1050C00022F020020282028A0A43028270470029EB
:1050D00004D0018A41F4804101827047018A21F4A1
:1050E000804101827047C1F3080181807047808848
:1050F000C0F308007047818941F001018181704748
:10510000028BD2B20283028B42EA012101837047F3
:10511000028B02F47F420283028B0A4302837047B0
:10512000002904D0818A41F0200181827047818A60
:1051300021F0200181827047002904D0818A41F04A
:10514000100181827047818A21F0100181827047AD
:10515000002904D0818A41F0080181827047818A48
:1051600021F0080181827047828A22F00402828243
:10517000828A0A4382827047002904D0818A41F0E2
:10518000020181827047818A21F002018182704789
:105190000246002012880A4200D001207047C9430D
:1051A0000180704770B50024C1F3421301F01F0560
:1051B000012606FA05F2012B0CD0022B0DD0838AB2
:1051C0001340090A8E40008830400BB100B1012421
:1051D000204670BD83891340F3E7038A1340F0E74C
:1051E0000A0A01219140C94301807047004C0040E8
:1051F00000BCFFBF003801402A4908432A49086023
:10520000704770B50F23C27801260178002A1ED09E
:10521000254A126802F4E062C2F5E062120AC2F1A5
:105220000404D3404578A54082781A402A431201ED
:1052300001F1E02181F80024007800F01F018E4088
:105240004009800000F1E020C0F8006170BD01F06D
:105250001F0086404809800000F1E020C0F880610E
:1052600070BD124A114001430F48001F0160704792
:105270000D4A121D002903D01168014311607047C7
:1052800011688143116070474FF0E021042804D079
:10529000086920F0040008617047086940F00400C4
:1052A000086170470000FA050CED00E080FFFF1F69
:1052B0003B4900200860091D0860091D0860091DA0
:1052C00008603749374814310860704730B5827933
:1052D000354C0168002A2FD0314A13688B43136084
:1052E000111D0A6803689A430A6001792144D1F8C4
:1052F000002403681A43C1F80024294B08331968B5
:105300000268914319601A1D11680568A94311606C
:105310004179102907D02144D1F8002400680243C4
:10532000C1F8002430BD1968046821431960116870
:1053300000680143116030BD00792044D0F800249A
:105340008A43C0F8002430BD0021016001710C22A5
:10535000427181717047124910310A6802430A6034
:105360007047014600200E4A143212680A4200D0EB
:10537000012070470A491431086070470146002037
:10538000074A12680A40064B14331B680B4202D0CE
:10539000002A00D00120704701491431086070478D
:1053A00000040140FFFF07000000014010B5044663
:1053B000F648017A490617D5406A18B1F4490968D8
:1053C000884211D13F2080F31188462007F0ABFFBF
:1053D000FDF7DAFA08F0EFF9204608F0DFFA07F0F7
:1053E0006FFF002080F3118810BD08B5ADF80010E4
:1053F0006946D03008F02CFB08BD2DE9F041074686
:105400000C4615461E46E148017A490622D5406AF7
:1054100018B1DF49096888421CD13F2080F3118808
:10542000462007F080FFFDF7AFFA08F0C4F93846D0
:1054300008F0B4FA2946452008F0B4F8204608F0F0
:10544000ADFA3146452008F0ADF807F039FF0020ED
:1054500080F31188BDE8F08170B504460D46CB4855
:10546000017A49061BD5406A18B1C94909688842C2
:1054700015D13F2080F31188462007F054FFFDF737
:1054800083FA08F098F9204608F088FA2946452062
:1054900008F088F807F014FF002080F3118870BD31
:1054A00000214167816770470021BA4A53185B7831
:1054B0005354491C1329F9D3D07470472DE9F04196
:1054C00004460888012802D004284AD130E03C2054
:1054D000FFF7EAFF0027E784206A20F0040020623B
:1054E000AD48C7722046FFF7DBFF206AAB4E81074D
:1054F0000DD520F0020040F0080020623068A44979
:105500000022006823461C31C5683068A84794F81B
:105510002000400608D530689D49002200682346D7
:105520000C31C5683068A8479D480770012091E795
:10553000B4F86400401C80B2A4F86400B0F5617F48
:1055400006D06421B0FBF1F201FB120121B108E0A9
:105550009448A06004207DE7C0F5617192A0FFF738
:105560007BFF9D48A060002074E770B50446088862
:10557000012802D0042847D12EE04220FFF794FFF3
:105580000020E084216A21F0040121628249C8726E
:105590002046FFF785FF206A804E81070DD520F059
:1055A000020040F00800206230687949002200685B
:1055B00023461C31C5683068A84794F8200040068F
:1055C00008D5306872490022006823460C31C5684E
:1055D0003068A847012070BDB4F87000401C80B24C
:1055E000A4F87000642806D06421B0FBF1F201FB3E
:1055F000120121B108E06B48A060042070BDC0F129
:10560000640176A0FFF728FF7348A060002070BDFA
:1056100070B5044608880025012802D0042843D12B
:1056200021E01420FFF740FFE584206A20F0040009
:1056300020625948C57205F066FD05F052FD6F49BC
:105640004FF4807008601020091D086094F87A00FB
:10565000401C84F87A00524805210170457085701D
:105660000120206670BD94F87A30012B05D9A4F88A
:1056700070506348A060042070BDE08C401C00B2F4
:10568000E084322806D0642190FBF1F201FB120184
:1056900021B109E04348A060042070BDC0F132028E
:1056A00058A15AA0FFF7A9FE4B48A060002070BD8A
:1056B00070B504460888052831D008DC4FF0000595
:1056C00001280BD002282ED0042852D12DE0092821
:1056D00027D034281FD036284BD11CE00320FFF7F9
:1056E000E3FE05F010FD05F0FCFC44494FF480702A
:1056F00008601020091D086094F87400401CC1B2B5
:1057000084F87410E58426484570857044A0FFF73E
:10571000A3FE012070BD4A48A060042070BD012096
:1057200070BD012070BD012070BD94F87400032885
:1057300005D9A4F864504348A060042070BDE08CF3
:10574000401C00B2E084B0F5967F06D0322190FB79
:10575000F1F201FB120121B10BE01248A06004201C
:1057600070BDC0F5967294F87A3026A136A0FFF786
:1057700044FE1948A060002070BD70B5044608883A
:10578000012874D0042871D1ABE070E0E826002035
:1057900044CA010810150020AC080020B4D9010843
:1057A000EE020020C3890008504F5745525F4F4E0C
:1057B0005F53544152545F55505F464154414C5FD2
:1057C0004552524F525F54494D454F5554207265D2
:1057D0006D61696E3D000000358F000853494D5FD3
:1057E000464154414C5F4552524F525F54494D45DA
:1057F0004F55542072656D61696E3D00100C01407B
:105800006B550008636F756E743D000053494D5F22
:105810004552524F522074696D656F75743D00009A
:10582000504F5745525F4F4E5F53544152545F554E
:10583000505F4552524F525320636F756E743D0056
:1058400011560008BD540008504F5745525F4F4E47
:105850005F53544152545F55505F4552524F52204E
:1058600074696D656F75743D0000000052E043205F
:10587000FFF71AFE0025E58405F045FC05F031FC34
:10588000F8484FF480710160F6491020091D086046
:10589000206A20F004002062F348C5722046FFF71A
:1058A000FFFD206AF14E81070CD520F0020040F088
:1058B000080020623068234600220068EC49C56871
:1058C0003068A84794F82000400608D53068E849B9
:1058D0000022006823461039C5683068A8470120B7
:1058E00070BDB4F87200401C80B2A4F87200642845
:1058F00006D06421B0FBF1F201FB120121B109E0F5
:10590000DC48A060042070BDC0F16401AFF2341027
:10591000FFF7A2FDD848A060002070BD70B5044616
:1059200008880025012802D0042836D116E0152069
:10593000FFF7BAFD206A20F004002062CA48C57251
:10594000E58494F87B00401C84F87B00CB4806215A
:105950000170457085700120206670BD94F87B0051
:10596000032805D9A4F87250C548A060042070BD72
:10597000E08C401C00B2E084322803DBBD48A0600C
:10598000042070BD642190FBF1F201FB120121B9EA
:10599000C0F13201BBA0FFF75FFDB748A060002057
:1059A00070BD2DE9F04104460125088804F1C006C8
:1059B00001280AD0022841D0B94E05281AD0412822
:1059C00012D0B848A060002044E52120FFF76CFD0C
:1059D0003220C4F8BC00C4F8C8400101002230469F
:1059E00007F0DAFA012035E5AFA0FFF7DFFCA6608B
:1059F00004202FE5D4F89000AF4F1230B86072B693
:105A0000AD4808F08CFD62B6387880B1012808D026
:105A1000022811D1A9A0FFF7C9FCAC48A060042559
:105A20000AE0ABA0FFF7C2FCA660042504E0ACA02E
:105A3000FFF7BCFCA660042528460BE5304607F0BE
:105A400019FB012006E570B50446088804F1C0057D
:105A5000012809D002281AD0052814D0412812D0D4
:105A60009048A060002070BD2020FFF71DFD32206F
:105A7000C4F8BC00C4F8C84001010022284607F061
:105A80008BFA012070BD9A48A060042070BD2846A2
:105A900007F0F0FA012070BD70B5044608880128AF
:105AA00003D08048A060002070BD2720FFF7FCFCD9
:105AB0006F4823461C38002201680968CD6800F150
:105AC00028010068A847012070BD10B50446088869
:105AD000012809D002281BD0052811D009280FD091
:105AE0007048A060002010BD3220FFF7DDFC81A0CF
:105AF00004F086FC4FF49670C4F8BC00012010BD81
:105B0000206A20F0200020628048A060042010BDA0
:105B1000012010BD70B504460D4632262888222883
:105B20003FD008DC04F1C00501280CD002284DD07C
:105B3000052804D131E023283AD0412815D059480E
:105B4000A060002070BD1F20FFF7AEFC14F8B80F56
:105B5000401C20706660B83CC4F8C8400022012197
:105B6000284607F019FA012070BD94F8B820322AAF
:105B70000DD804F12A0066A1044611F087FA2046E8
:105B800004F03EFC2046FFF711FC012070BDC4F874
:105B9000BC606348A060042070BD4148A060042040
:105BA00070BD60A0FFF702FC6048A060042070BDDB
:105BB0005FA0FFF7FBFB6968C4F8901004F1940044
:105BC00011F0B0FC5D48A060042070BD284607F0CD
:105BD00051FA012070BD70B50446088804F1C00573
:105BE00001280AD0022830D02D49052825D0412887
:105BF00028D02C48A060002070BD2220FFF754FC64
:105C000004F12A0094F8B8204DA1064611F03EFA9E
:105C1000304604F0F5FB3046FFF7C8FB3C20C4F8E3
:105C2000BC00C4F8C84000224FF47A71284607F03F
:105C3000B3F90020E065012070BD0120E065A1609E
:105C4000042070BDA160042070BD284607F012FA40
:105C5000E06D012804D03EA0FFF7A8FB012070BD35
:105C600080E00000100C0140AC080020B4D901080D
:105C700060CA0108C3890008358F0008EE020020C1
:105C80007B57000853494D5F4C4F434B5F54494D80
:105C9000454F55542072656D61696E3D00000000EE
:105CA000155B0008F36A000854494D454F555420D0
:105CB0004552524F520000000415002050524F43ED
:105CC0004553535F534D535F4F4B00003D680008F1
:105CD00050415353574F52445F4552524F52000068
:105CE000464F524D41545F4552524F520000000002
:105CF000D75B000841542B434D4744413D22444566
:105D00004C20414C4C220D0A00000000995A00081A
:105D100041542B434D47523D25752C300D0A000050
:105D2000CB5A000849535F5245414400475A000886
:105D300049535F554E52454144000000A3590008A5
:105D400041542B434D47443D25750D0A000000008A
:105D500044454C45544520534D53204552524F52D3
:105D600000000000FEA0FFF721FB77E72DE9F843D4
:105D700004464FF001080888FD4D04F1C0060128D3
:105D80000BD0022867D0FB4F052850D0412818D0EF
:105D9000F948A0600020BDE8F8832420FFF784FBC9
:105DA0000A20C4F8BC00C4F8C840002214213046C0
:105DB00007F0F2F8F1A0FFF7F9FA0020A87101202E
:105DC000E9E7A87920B1012812D0022829D026E0DD
:105DD000EC4804F015FBC4F8C840002228213046E6
:105DE00007F0DAF8E8A0FFF7E1FA0120A87116E061
:105DF000E8A000680090684604F002FBE6A0FFF708
:105E0000D5FA4FF4C870C4F8BC00C4F8C8400022EA
:105E100041F65831304607F0BFF80220A871012042
:105E2000B9E7E0A0FFF7C2FAA7600420B3E7A879BA
:105E3000022804D0DFA0FFF7B9FA4046ABE7E4A0A0
:105E4000FFF7B4FAE548016841F002010160A7607C
:105E50004FF00408F1E7304607F00CF901209AE70B
:105E600070B50446088804F1C005012809D002284D
:105E700036D0172830D0412827D0BF48A060002056
:105E800070BD2320FFF710FBD54823460022016890
:105E900000680968CE68D349B04704F12A0004F1CC
:105EA0009402D1A1064611F0F1F8304604F0A8FAA8
:105EB0006420C4F8BC00C4F8C84000224FF47A71D2
:105EC000284607F069F8012070BDB6A0FFF76EFA0A
:105ED000A848A060042070BDC748A060042070BD21
:105EE000284607F0C7F8012070BD70B50446088841
:105EF00004F1C00505283DD004DC01280AD00228A1
:105F000004D150E03F2845D041282CD09A48A060C9
:105F1000002070BD2620FFF7C7FA04F12A00B7A1C0
:105F2000064611F0FFFAB84801683046491C11F0E6
:105F300087FBB6A1304611F083FB304604F060FACF
:105F40003046FFF733FA1E20C4F8BC00C4F8C8403E
:105F500000224FF4C871284607F01EF8ACA0FFF7E6
:105F600025FA012070BDAEA0FFF720FA8148A0609D
:105F7000042070BDFA20C4F8BC00284607F07AF867
:105F8000C4F8C84000224FF47A61284607F004F8AC
:105F9000012070BD49687B48123111F0C3FAA54851
:105FA000A060042070BD284607F064F8012070BD91
:105FB00030B405460B460020002401E01C54401C70
:105FC0009042FBD305F5807230BC9BA1184611F0BE
:105FD0005DB82DE9F04395B007460D46002200203C
:105FE00001E0B854521CAA42FBD30024DFF85482CB
:105FF00004EB440008EB4006621C737892A101A8F0
:1060000011F044F801A811F0B1FA8146384611F0B8
:10601000ADFA281A814503D201A9384611F010FBC8
:10602000F2788DA101A811F031F801A811F09EFAC3
:106030000646384611F09AFA281A864203D201A978
:10604000384611F0FDFA641C062CD1D3844885A192
:10605000B0F85F2101A811F019F801A811F086FA33
:106060000446384611F082FA281A844203D201A964
:10607000384611F0E5FA15B0BDE8F0832DE9F0419E
:1060800094B006460D4614460020002101E0295434
:10609000401CA042FBD3724F74A16846B7F81F2181
:1060A00010F0F4FF684611F061FA8046284611F0BE
:1060B0005DFA201A804503D26946284611F0C0FADD
:1060C000B7F852216BA1684610F0E0FF684611F066
:1060D0004DFA8046284611F049FA201A804503D22D
:1060E0006946284611F0ACFAD7F8542163A16846F6
:1060F00010F0CCFF684611F039FA8046284611F0BE
:1061000035FA201A804503D26946284611F098FADC
:1061100097F850215CA1684610F0B8FF684611F06E
:1061200025FA8046284611F021FA201A804503D22C
:106130006946284611F084FA97F8512154A168461F
:1061400010F0A4FF684611F011FA8046284611F0BD
:106150000DFA201A804501D269469DE09FE00000BB
:1061600044454C45544520534D53204F4B000000AF
:10617000EE0200203D680008F36A000850415553C4
:1061800045000000D012002050555348204441548F
:10619000410000001A00000057414954494E472071
:1061A0004F4B000053454E4420534D53204552520F
:1061B0004F5200004552524F522120554E455850E3
:1061C0004543544544204F4B2053494700000000AD
:1061D00053454E4420534D53204F4B001005002093
:1061E000BCCF010858CA010841542B434D47533DC9
:1061F00025730D0A000000006D5D000841542B431B
:106200005553443D312C2200D4020020220D0A00B7
:1062100050524F4345535320555353440000000000
:1062200050524F43455353205553534420455252E7
:106230004F520000615E0008494D45493D25733BC2
:1062400000000000FE1000202575525334383544FC
:106250003D25753B00000000413D25643B000000EA
:1062600022110020444E3D25753B00005252543D02
:1062700025753B005252433D25753B0052434F5517
:106280004E543D25753B00005554433D25753B005C
:106290005554543D25753B00284611F0D1F9D7F8E7
:1062A0005821FDA1684610F0F1FE684611F05EF934
:1062B0000746284611F05AF9201A874203D2694648
:1062C000284611F0BDF9F84890F82700022829D097
:1062D00001282CD0F5A1684611F024F9684611F088
:1062E00045F90746284611F041F9201A874203D2A2
:1062F0006946284611F0A4F906F58071684611F048
:1063000011F9684611F032F90646284611F02EF9C7
:10631000201A864203D26946284611F091F914B03A
:10632000BDE8F081E6A1684611F0FCF8D6E7E8A1E7
:10633000684611F0F7F8D1E770B594B005460C4601
:106340000022002101E0A954521CA242FBD3E548DF
:10635000E5A143780278684610F098FE684611F08F
:1063600005F90646284611F001F9201A864203D2A3
:106370006946284611F064F9DF48E0A1B0F8210130
:10638000C3B2020A684610F081FE684611F0EEF8CA
:106390000646284611F0EAF8201A864203D26946DA
:1063A000284611F04DF901230222D9A1684610F0C8
:1063B0006DFE684611F0DAF80646284611F0D6F868
:1063C000201A864203D26946284611F039F914B0E2
:1063D00070BDF0B597B006460D460022002001E0E2
:1063E000B054521CAA42FBD3CDA103A811F09AF8D5
:1063F0001324CF4FCFA168463A5D10F047FE69469F
:1064000003A811F01DF9641E002CF3DA03A811F0A3
:10641000ADF80446304611F0A9F8281A844203D298
:1064200003A9304611F00CF917B0F0BDF0B595B0E6
:1064300005460C460022002101E0A954521CA2424C
:10644000FBD3AD4EBCA101A8B6F83A2110F01EFE58
:1064500001A811F08BF80746284611F087F8201A9A
:10646000874203D201A9284611F0EAF8B6F83C2188
:10647000B5A101A810F00AFE01A811F077F80746AF
:10648000284611F073F8201A874203D201A9284642
:1064900011F0D6F896F83E21AFA101A810F0F6FD54
:1064A00001A811F063F80646284611F05FF8201A9B
:1064B000864203D201A9284611F0C2F815B0F0BDFA
:1064C000F0B595B005460C460022002101E0A95424
:1064D000521CA242FBD3A64EA6A101A8B27910F08D
:1064E000D5FD01A811F042F80746284611F03EF804
:1064F000201A874203D201A9284611F0A1F8B6F864
:106500000120A0A101A810F0C1FD01A811F02EF8F2
:106510000746284611F02AF8201A874203D201A91B
:10652000284611F08DF872799AA101A810F0AEFDFD
:1065300001A811F01BF80746284611F017F8201A99
:10654000874203D201A9284611F07AF8B6F8032051
:1065500094A101A810F09AFD01A811F007F80646D1
:10656000284611F003F8201A8642A7D201A928462E
:1065700011F066F8A2E7F0B595B005460C4600218B
:10658000002201E06A54491CA142FBD35A4E96F8FE
:10659000230100287ED087A101A810F0C3FF01A825
:1065A00010F0E4FF0746284610F0E0FF201A87426B
:1065B00003D201A9284611F043F8B6F8F5207EA1D0
:1065C00001A810F063FD01A810F0D0FF074628468F
:1065D00010F0CCFF201A874203D201A9284611F0FF
:1065E0002FF8454A77A1D53201A810F04FFD01A838
:1065F00010F0BCFF0746284610F0B8FF201A87426B
:1066000003D201A9284611F01BF896F86D216FA15D
:1066100001A810F03BFD01A810F0A8FF074628468E
:1066200010F0A4FF201A874203D201A9284611F0D6
:1066300007F8314A67A1083201A810F027FD01A828
:1066400010F094FF0746284610F090FF201A87426A
:1066500003D201A9284610F0F3FF274A60A1723245
:1066600001A810F013FD01A810F080FF074628468E
:1066700010F07CFF201A874203D201A9284610F0AF
:10668000DFFF721C59A101A810F000FD01A810F055
:106690006DFFAFE0CDE000004E4D45415F455252E9
:1066A0003D25753B00000000AC0800204E41565FC0
:1066B000535441543D4E4F204E4D45413B00000048
:1066C0004E41565F535441543D4649583B000000EB
:1066D0004E41565F535441543D4E4F204649583B1E
:1066E00000000000FAC201084657205645523D25D9
:1066F000755F25753B0D0A00221100204657205674
:106700004552204E45573D25755F25753B000000DD
:106710005043425F5645523D25755F25753B00004D
:106720004D4F445F484953544F52593D00000000BB
:106730001015002025643B0053454E442054494D1C
:10674000453D25753B00000053454E4420444953C8
:10675000543D25753B00000053454E44205052499E
:106760004F2046494C5445523D25753B00000000E2
:10677000F51000204E41562046494C5445523D25C7
:10678000753B000053544F52452054494D453D251B
:10679000753B000053544F524520414E474C453DF8
:1067A00025753B0053544F524520444953543D25D1
:1067B000753B0000464D3B00504F52543D25753B04
:1067C0000000000049503D25733B000053494D3DFA
:1067D00025753B0041504E313D25733B00000000C4
:1067E00041504E323D25733B0000000042313D25B3
:1067F000733B00000646284610F0B8FE201A864279
:1068000003D201A9284610F01BFFFA4AFAA101A8F9
:1068100010F03CFC01A810F0A9FE0646284610F036
:10682000A5FE201A864203D201A9284610F008FFCF
:1068300044E6F3A101A810F075FEB0E62DE9F041A1
:10684000044608880A2704F1C006012807D0022858
:106850007DD0412811D0EB48A060002060E52520C4
:10686000FEF722FEC4F8BC70C4F8C8400022012123
:10687000304606F091FB012052E5E34AD1788806C4
:1068800015D521F02000D070E04823460022016891
:1068900000680968CD68DE49A847C4F8BC70C4F830
:1068A000C84000220A21304606F076FBFCE0D94DB4
:1068B00008061CD521F08000D070A121D648FFF732
:1068C0005AFED54810F052FEC1B229B1D248FEF7A7
:1068D000C3FDA560042023E5D0A0FEF767FDC4F842
:1068E000C84000220121304606F056FBDCE010795A
:1068F000C3071CD020F001001071A121C648FFF78A
:10690000DFFDC54810F032FEC1B229B1C248FEF722
:10691000A3FDA560042003E5C7A0FEF747FDC4F86A
:10692000C84000220121304606F036FBBCE0430798
:106930001ED520F004001071A121B748FFF776FDA5
:10694000B54810F013FEC1B239B1B34800E0CBE056
:10695000FEF782FDA5600420E2E4BDA0FEF726FD5F
:10696000C4F8C84000220121304606F015FB9BE028
:1069700083061CD520F020001071A121A648FFF746
:1069800028FDA54810F0F2FDC1B229B1A248FEF7DA
:1069900063FDA5600420C3E4B4A0FEF707FDC4F8BE
:1069A000C84000220121304606F0F6FA7CE00307D9
:1069B0001CD520F008001071A1219748FFF7BCFCFE
:1069C000954810F0D3FDC1B229B19348FEF744FDBC
:1069D000A5600420A4E4ACA0FEF7E8FCC4F8C8401D
:1069E00000220121304606F0D7FA5DE0C3061DD52E
:1069F00020F010001071A12287492046FFF73EFBCE
:106A0000854810F0B3FDC1B229B18348FEF724FDDB
:106A1000A560042084E49CA0FEF7C8FCC4F8C8402C
:106A200000220121304606F0B7FA3DE083071CD56D
:106A300020F002001071A1217748FFF7CAFA7648CA
:106A400010F094FDC1B229B17348FEF705FDA560B1
:106A5000042065E492A0FEF7A9FCC4F8C840002217
:106A60000121304606F098FA1EE043061ED520F0BC
:106A700040001071A12268492046FFF799FA664844
:106A800010F074FDC1B229B16348FEF7E5FCA560C2
:106A9000042045E489A0FEF789FCC4F8C840002220
:106AA0000121304606F078FA012039E4480606D57F
:106AB00021F04000D0708848A060042030E4874E68
:106AC000C8060ED521F01000D0708548234600225C
:106AD000016800680968CD688249A847A66004205B
:106AE0001EE4A66004201BE4304606F0C3FA012031
:106AF00016E42DE9F041044608880A277A4DDFF8AC
:106B0000EC81414E042866D006DC01280CD0022816
:106B10006DD0032804D110E0092816D0402833D0C6
:106B2000C4F80880002099E61E20FEF7BDFCB834AA
:106B3000676000202070012090E6206A20F010009D
:106B400020626B48A060042088E66AA0FEF72EFC55
:106B5000F078000709D56AA0FEF728FCF07820F04D
:106B60000800F070A560042078E694F82000400644
:106B700005D568A0FEF71AFCA56004206EE6D4F8DF
:106B80008C00A060042069E664A0FEF70FFC206A78
:106B9000810606D520F0200020626748A06004200E
:106BA0005CE6F178090709D555A0FEF7FFFBF07800
:106BB00020F00800F070A56004204FE6400605D5DF
:106BC00054A0FEF7F3FBA560042047E6D4F88C0040
:106BD000A060042042E6D4F8BC10491EC4F8BC10E2
:106BE00031B1B1FBF7F007FB101010B1CAE0CDE0F6
:106BF000A4E0C4E08D11002042323D25733B00002B
:106C000051553B00F36A00080415002034D70108F1
:106C100038D70108615E0008D01200204552524F5B
:106C20005221204750525320534D53204953204561
:106C30004D505459000000004552524F5221204EF1
:106C4000415620534D5320495320454D505459002F
:106C50004552524F5221205041434B20534D532017
:106C6000495320454D505459000000004552524FA1
:106C70005221204D4F44454D20534D532049532020
:106C8000454D5054590000004552524F5221205654
:106C9000455220534D5320495320454D50545900DF
:106CA0004552524F52212053454E5320534D5320AD
:106CB000495320454D505459000000004552524F51
:106CC000522120494D454920534D532049532045D9
:106CD0004D50545900000000EB5E0008D75B0008DF
:106CE000B4D90108B8D90108618C0008358F0008B3
:106CF000155B00084552524F525F53494700000050
:106D0000726573746172745F6D6F64656D3D3D3162
:106D1000000000007570643D3D31000050524F434B
:106D20004553535F534D535F434F4D504C4554456E
:106D30005F534947000000003D680008F7A0FEF7D8
:106D400035FBF07800070AD5AFF24C00FEF72EFBBA
:106D5000F07820F00800F070A56004207EE594F83B
:106D60002000400606D5AFF25400FEF71FFBA560D9
:106D7000042073E5D4F88C00A06004206EE5EEA03A
:106D8000FEF76AFBC4F80880002067E5012065E58E
:106D90002DE9F04104460888012802D0042856D184
:106DA0003DE03D20FEF780FB0027E78404F0ABF9CF
:106DB00004F097F9E6494FF4807008601020091D2F
:106DC0000860206A20F004002062E248C772204672
:106DD000FEF766FB206AE04E81070CD520F002002A
:106DE00040F0080020623068234600220068DB493A
:106DF000C5683068A84794F82000400608D5306878
:106E0000D6490022006823461039C5683068A84773
:106E1000D348042101704770012020661EE5B4F8B4
:106E20006600401C80B2A4F86600322806D06421B7
:106E3000B0FBF1F201FB120121B108E0C948A060EA
:106E400004200BE5C0F13201C7A0FEF705FBD048D6
:106E5000A060002002E570B50446088805282BD004
:106E600008DC4FF0000501280BD0022826D00428AA
:106E70004BD129E009281FD0342819D0362844D115
:106E800016E00820FEF710FBC248C4F88C00E58429
:106E900094F87500401C84F87500B14845700421D1
:106EA00001708570206A40F004002062012070BDEE
:106EB000B948A060042070BD012070BD206A20F098
:106EC00004002062012070BD206AC10601D4810641
:106ED00008D594F87500401E84F87500AF48A0608E
:106EE000042070BD94F87510032905D9A4F86650E4
:106EF000AB48A060042070BDE18C491C09B2E1845C
:106F0000322906D040F004002062A148A060002091
:106F100070BDA448A060042070BD70B50446088808
:106F2000012802D0042852D130E03E20FEF7BCFAFE
:106F30009D48C4F88C00206A20F00400206220469E
:106F4000FEF7AEFA206A844E81070CD520F00200CD
:106F500040F00800206230682346002200687F4924
:106F6000C5683068A84794F82000400608D5306806
:106F70007A490022006823461039C5683068A8475E
:106F80007749002048700120206670BD206A810684
:106F900001D4C00603D58148A060042070BDB4F8B8
:106FA0006800401C80B2A4F86800322806D0642132
:106FB000B0FBF1F201FB120121B108E07B48A060B7
:106FC000042070BDC0F1320179A0FEF745FA704887
:106FD000A060002070BD70B504460888052825D043
:106FE00008DC4FF0000501280BD0022822D004282D
:106FF0003DD125E009281BD0342813D0362836D1BE
:1070000010E00C20FEF750FA5548857003214170BE
:1070100058347148606324F8325CA07F401CA0772C
:10702000012070BD5C48A060042070BD012070BDCF
:10703000012070BD206A20F004002062012070BD94
:10704000206A810601D4C10608D594F87600401E56
:1070500084F876005148A060042070BDE18C491C82
:1070600009B2E184322906D040F004002062484889
:10707000A060002070BD94F876104A480B29F6D223
:10708000DFE801F006070A0E0E0E0E0E0E0E1100BE
:10709000EDE7A060042070BD4448A060042070BDEE
:1070A000A060042070BDA4F868503F48A060042090
:1070B00070BD70B504460888484D092828D00ADC00
:1070C0004FF0000601280FD0022822D0042821D03A
:1070D000052820D19AE00A281ED00D2812D0342885
:1070E0000CD0362817D109E01020FEF7DDF93CA0BE
:1070F00003F086F9E065E684012070BD2648A060B3
:10710000042070BD3AA0FEF751F9A560042070BDBF
:107110007EE083E086E099E072E0000050524F4349
:1071200045535320534D532054494D454F555420FA
:107130004552524F5200000050524F434553532086
:10714000534D532054494D454F55543D00000000C8
:10715000100C0140AC080020B4D9010860CA010835
:10716000EE020020C38900084F50454E5F47534D43
:107170005F464154414C5F4552524F525F54494D16
:10718000454F55542072656D61696E3D00000000E9
:10719000358F0008576E000811560008F36A000882
:1071A000916D0008818800081B6F00085B8B000848
:1071B0004F50454E5F475052535F464154414C5FDC
:1071C0004552524F525F54494D454F5554207265B8
:1071D0006D61696E3D000000D76F000849870008A7
:1071E00041542B434950434C4F53453D310D0A0008
:1071F000434C4F53455F4F4B5F53494700000000DE
:10720000FAA0FEF7D3F8A560042070BD012070BD80
:10721000F9A0FEF7CBF8A560042070BDFD4886708C
:10722000012070BDE08C401C00B2E084642802D0D4
:10723000E06D30B10AE0F8A0FEF7B8F8A5600420D0
:1072400070BDAFF2640003F0DBF8E065FB48A060BE
:10725000002070BD70B504460888012802D00428BB
:1072600041D11EE03F20FEF71FF9F548C4F88C001D
:107270002046FEF715F9206A81070DD540F0080079
:1072800020F002002062EF482346002201680068D7
:107290000968CD68EC49A847DE49042088700120C0
:1072A00070BD206A810601D4C00603D5E748A060FE
:1072B000042070BDB4F86A00401C80B2A4F86A00D3
:1072C000B0F5966F06D06421B0FBF1F201FB12011C
:1072D00021B108E0DE48A060042070BDC0F59661D1
:1072E000DCA0FEF7B9F8D548A060002070BD70B5ED
:1072F00004460888D649092825D00ADC4FF0000545
:1073000001280DD0022839D0042823D0052831D1F6
:1073100010E00C2810D0342818D036282AD115E0D7
:107320000A20FEF7C1F8D6A003F06AF8E065E5840C
:10733000012070BD012070BDD5A0FEF737F8D848F8
:10734000A060042070BDA160042070BDD548A0607D
:10735000042070BDE08C401C00B2E084642802D0A0
:10736000E06D18B106E0A160042070BDC4A003F078
:1073700047F8E065B148A060002070BDA5484570A1
:107380008570012070BD70B504460888052824D09A
:1073900008DC4FF0000501280BD0022821D004287A
:1073A0005AD124E009281AD0342812D0362853D1D3
:1073B0000FE01120FEF778F89649042088705834C1
:1073C000B948606324F8325CE07F401CE07701201C
:1073D00070BDB448A060042070BD012070BD0120C4
:1073E00070BD206A20F004002062012070BDE08C96
:1073F000401C01B2E184206A820601D4C20608D58D
:1074000094F87700401E84F877009048A06004202C
:1074100070BD32291DDB94F87720A448A449072ABF
:1074200011D2DFE802F010040404070A0D00A06086
:10743000042070BDA160042070BDA060042070BD58
:10744000A160042070BDA4F86A507D48A0600420AB
:1074500070BD40F0040020627848A060002070BD3C
:1074600070B504460888012802D004283CD119E0F0
:107470004020FEF719F88F48C4F88C002046FEF72C
:107480000FF8206A81070BD520F0020020626D48BA
:1074900023460022016800680968CD686A49A84748
:1074A000012070BD206A810601D4C00603D567485B
:1074B000A060042070BDB4F86C00401C80B2A4F839
:1074C0006C00B0F5966F06D06421B0FBF1F201FBC1
:1074D000120121B108E05E48A060042070BDC0F533
:1074E000966175A0FDF7B8FF5448A060002070BDFC
:1074F00070B504460888052824D008DC4FF0000544
:1075000001280BD0022821D004283CD124E00928EE
:107510001AD0342812D0362835D10FE01320FDF7C9
:10752000C3FF5C346F48206324F8365C207F401C26
:107530002077384905208870012070BD5948A06027
:10754000042070BD012070BD012070BD206A20F0B4
:1075500004002062012070BD206A810601D4C106AA
:1075600008D594F87800401E84F878003748A06069
:10757000042070BDE18C491C09B2E184322906D097
:1075800040F0040020622D48A060002070BD94F8F7
:10759000782046494648072A11D2DFE802F0100455
:1075A0000404070A0D00A160042070BDA06004203F
:1075B00070BDA160042070BDA060042070BDA4F85F
:1075C0006C503C48A060042070BD70B5044608882B
:1075D000012806D0042805D0052804D0092803D1A5
:1075E0009EE081E09EE099E0BEE00000434C4F53F6
:1075F00045445F5349470000434C4F534520434F98
:107600004E4E454354494F4E204552524F52212130
:1076100021000000EE020020434C4F534520434F11
:107620004E4E454354494F4E2054494D454F5554B5
:10763000204552524F52212121000000358F000871
:1076400055720008B4D9010860CA0108F36A00083D
:107650005B8B00084F50454E5F434F4E4E454354A1
:10766000494F4E5F464154414C5F4552524F525F25
:1076700054494D454F55542072656D61696E3D000A
:1076800041542B434950534855540D0A0000000003
:10769000434C4F53452047505253204F4B0000005E
:1076A000498700081156000887730008B370000866
:1076B000EF72000861740008415554484F52495A0E
:1076C0004154494F4E5F464154414C5F4552524FE1
:1076D000525F54494D454F55542072656D61696E36
:1076E0003D000000F17400084120FDF7DDFEFD487B
:1076F000C4F88C002046FDF7D3FE206A40F0080055
:1077000020F002002062F848234600220168006849
:107710000968CD68F549A847012070BD012070BDFA
:10772000012070BD206A810601D4C00603D5F0484F
:10773000A060042070BDB4F86E00401C80B2A4F8B4
:107740006E00B0F5966F06D06421B0FBF1F201FB3C
:10775000120121B108E0E748A060042070BDC0F527
:107760009661E5A0FDF778FEED48A060002070BDB1
:1077700070B50446088800250A2848D2DFE800F0E2
:1077800047051B472117474747191720FDF78CFE70
:10779000E448C4F88C00E58494F87900401C84F82F
:1077A0007900206A40F004002062012070BD0120B1
:1077B00070BD012070BD206A20F00400206201200D
:1077C00070BD206A810601D4C00608D594F87900FE
:1077D000401E84F87900C648A060042070BD94F86B
:1077E000790001280BD0022809D0032807D00428EB
:1077F00009D0A4F86E50BB48A060042070BDCA48F0
:10780000A060042070BDC948A060042070BDC448B9
:10781000A060002070BD2DE9F843044608880025CB
:1078200004F1D0020B282DD008DC7BD2DFE800F079
:10783000CE15C9CECB2ACECECE2A2A00342821D0CE
:1078400006DC17281ED031281CD032286AD119E056
:10785000362817D04828F9D119E01620FDF724FE64
:10786000E06FC4F8E400B4F88000A4F8E8004C210C
:107870002046FDF7BAFDE584AD490220487001209D
:10788000BDE8F883104606F0E3F80120F8E7A948C0
:10789000DFF8A492944F90F82301DFF8A082A14E64
:1078A000012808D0087901283DD0A5A0FDF77EFD6C
:1078B000A6600420E4E70879012805D0A0A0FDF720
:1078C00075FDA6600420DBE7B4F8F000042805D0BD
:1078D000A0A0FDF76BFDA6600420D1E76946D4F8AF
:1078E000EC0006F0A5FEA3A00099FDF7B5FDD9F8C0
:1078F000000040F00100C9F8000084F8285084F826
:107900007950206A20F0020020623868774900220E
:1079100000682346091FC5683868A847C4F808806E
:107920000420ADE752E0B4F8F000012805D089A0AA
:10793000FDF73CFDA6600420A2E7D4F8EC00007837
:1079400001280BD094F82800401CC0B284F828000D
:10795000052821D29148A060042091E790A0FDF76E
:1079600025FDD9F8000040F00100C9F8000084F8B6
:10797000285084F87950206A20F00200206238688C
:107980005A49002200682346091FC5683868A8477D
:10799000C4F80880042073E784F82850206A20F097
:1079A00002002062386851490022006823460831ED
:1079B000C6683868B04784F87950C4F80880042055
:1079C0005EE701205CE7104606F042F85448A060EC
:1079D000002055E770B504460888434E092841D079
:1079E00008DC01280DD002283ED0042842D005280A
:1079F0004FD135E034282FD036282DD03D2848D11E
:107A00001FE00D20FDF750FD6948C4F88C000020F0
:107A1000E08484F87800206A40F00400444A02219F
:107A2000517020F0010020F00800206230682F49DA
:107A3000002200682346091DC5683068A847012058
:107A400070BD30682949002200682346091DC568B9
:107A50003068A847012070BD5648A060042070BD62
:107A6000012070BD012070BD206A20F0040020625A
:107A7000012070BD206A810601D4C10603D51C48CF
:107A8000A060042070BD800703D54448A060042096
:107A900070BD2348A060002070BD70B505460C463F
:107AA000642020700020A4F803002B26A4F80160B5
:107AB00001216171C4F827000F2205F58071A01D16
:107AC0000FF0CAFD122205F5887104F115000FF0C0
:107AD000C3FD31462046FBF7B0FDA4F80300304655
