:020000040800F2
:100000001804002045010008490100084B010008C0
:100010004D0100084F0100085101000800000000D8
:100020000000000000000000000000005301000874
:1000300055010008000000005701000859010008A0
:100040005B0100085B0100085B0100085B01000820
:100050005B0100085B0100085B0100085B01000810
:100060005B0100085B0100085B0100085B01000800
:100070005B0100085B0100085B0100085B010008F0
:100080005B0100085B0100085B0100085B010008E0
:100090005B0100085B0100085B0100085B010008D0
:1000A0005B0100085B0100085B0100085B010008C0
:1000B0005B0100085B0100085B0100085B010008B0
:1000C0005B0100085B0100085B0100085B010008A0
:1000D0005B0100085B0100085B0100085B01000890
:1000E0005B0100085B0100085B0100085B01000880
:1000F0005B0100085B0100085B0100085B01000870
:100100005B0100085B0100085B0100085B0100085F
:100110005B0100085B0100085B0100085B0100084F
:100120005B0100085B0100085B0100085B0100083F
:10013000DFF80CD000F062FC00480047DB07000845
:100140001804002005480047FEE7FEE7FEE7FEE74B
:10015000FEE7FEE7FEE7FEE7FEE7FEE73101000807
:100160008546704710B5954A811A1315D4149042EC
:1001700037D010DC924940181FD0984227D0A042B7
:100180004DD10121102000F056FA0021BDE81040A9
:10019000102000F050BA99422DD0A14235D0B1F5CF
:1001A000406F3CD101210C02204600F044FA204669
:1001B000BDE81040002100F03EBA0121042000F00B
:1001C0003AFA0021BDE81040042000F034BA0121C1
:1001D000082000F030FA0021BDE81040082000F0AF
:1001E0002ABA0121202000F026FA0021BDE81040A3
:1001F000202000F020BA0121402000F01CFA00214C
:10020000BDE81040402000F016BA0121802000F027
:1002100012FA0021BDE81040802000F00CBA10BD99
:1002200010B50121084600F006FA0021BDE8104093
:10023000012000F000BA2DE9F0410022CC7804F052
:100240000F03E406002C01DA8C7823430C780F2787
:100250004FF0010CE4B105680CFA02F40E88264058
:10026000A64211D1960007FA06F825EA080503FA16
:1002700006F848EA0505CE78282E02D0482E02D08E
:1002800002E0446100E00461521C082AE4D30560E6
:100290000A88FF2A1ED94568002202F108060CFAD6
:1002A00006F40E882640A64210D1960007FA06F8FA
:1002B00025EA080503FA06F848EA0505CE78282E4F
:1002C00000D14461CE78482E00D10461521C082A26
:1002D000E3D34560BDE8F0814FF6FF710180022154
:1002E00081700421C17070470246002092680A4262
:1002F00000D001207047806880B27047024600201D
:10030000D2680A4200D001207047C06880B27047AE
:100310000161704741617047002A01D00161704757
:1003200041617047C160704741F4803282618161F0
:10033000826181698069704710B5224B1A684FF657
:100340008074224042EA00100843186010BD1E4924
:10035000C8617047F0B51B4D6B68C0F30342440D94
:10036000260184B2C0F30157B440032F07D0C00266
:100370000CD503209040834343F0706209E023F0E2
:100380007062686820F07060686002E0A34343F028
:10039000706201B122436A60F0BD10B58A07120F86
:1003A0000F23934021F00304064921448C689C43A9
:1003B0008C608B68904003438B6010BD001401403B
:1003C00000F8FEBF0000014000002042B248016872
:1003D00041F0010101604168B04A1140416001688B
:1003E000AF4A11400160016821F480210160416839
:1003F00021F4FE014160002181607047A6490A682E
:1004000022F480320A600A6822F480220A60B0F581
:10041000803F07D0B0F5802F03D1086840F4A020BA
:1004200008607047086840F48030086070470346F1
:1004300000205909984A01290AD002290AD0516A94
:1004400003F01F02012393400B4200D001207047AC
:100450001168F5E7116AF3E718B5002000904FF432
:10046000A0643120FFF7E3FF0099491C009110B907
:100470000098A042F5D13120FFF7D9FF08B1012043
:1004800018BD002018BD844A116821F0F80141EA26
:10049000C000106070478349086070477E4B5A68FF
:1004A00022F47C1208431043586070477D49086667
:1004B0007047794A516821F0030101435160704748
:1004C0007548406800F00C007047734A516821F08D
:1004D000F0010143516070476F4A516821F4E061B7
:1004E0000143516070476C4A516821F4605141EA00
:1004F000C00050607047684A002903D0517A014318
:1005000051727047517A8143517270476649086051
:100510007047614A516821F440410143516070477E
:10052000624900220A7001F82029012805D0042818
:1005300002D1052081F820007047012081F82000B9
:1005400070475B490860704753490A6A02430A6270
:100550007047574944390860704710B54E4A516892
:1005600001F00C01534B002927D0042927D008297A
:1005700027D00360516801F0F00109094E4B5C5C23
:100580000168E1404160546804F4E064240A1C5DA1
:1005900021FA04F48460546804F46054E40A1B5D96
:1005A000D940C160526802F44042920B424B1B1F7B
:1005B0009A5CB1FBF2F1016110BD0360DAE7036000
:1005C000D8E7516801F47011022303EB914153689D
:1005D00003F4803333B153689B0307D5374B59433A
:1005E0000160C7E7354B59430160C3E7314B5943BD
:1005F0000160BFE7284A002903D0516901435161D6
:1006000070475169814351617047234A002903D0E3
:10061000916901439161704791698143916170478C
:100620001D4A002903D0D1690143D1617047D169C6
:100630008143D1617047184A002903D0D168014332
:10064000D1607047D1688143D1607047124A002958
:1006500003D0116901431161704711698143116130
:10066000704713494039086070470E49C8647047A5
:100670000949C87170470848416A41F08071416278
:10068000704701460020044A92680A4200D00120C7
:100690007047014988727047001002400000FFF85F
:1006A000FFFFF6FE00004242D80042422010024006
:1006B0008004424200127A000400002000093D003C
:1006C0002DE9F84310208DF8030003208DF8020077
:1006D0004FF00808ADF80080204D69462846FFF726
:1006E000AAFD0424ADF8004069462846FFF7A3FDA3
:1006F0000126ADF80060DFF8689069464846FFF7CC
:100700009AFDADF8004069464846FFF794FD022780
:10071000ADF8007069464846FFF78DFDC5F81480B6
:100720006C610F481430066004600760BDE8F88310
:1007300010B501210420FFF768FF01210820FFF711
:1007400064FF01211020FFF760FF01212020FFF747
:100750005CFFBDE81040B3E77047000000100140A7
:1007600000080140002100E0491C8142FCD3704791
:1007700070B590B005460E4640228F49684600F09D
:100780002BF9002000226C4611E0AB5C83EA0001EB
:1007900001F00F0154F8211081EA101080EA1311C2
:1007A00001F00F0154F8211081EA1010521CB242DE
:1007B000EBD310B070BD10B504466168B1F5F83FD9
:1007C00001D9002010BD2068FFF7D2FFA168884240
:1007D00001D1012010BD002010BD00250024FFF72D
:1007E000A7FFDFF8E0B1DFF8D481754E04274FF0A2
:1007F000010A0BF10409062CFDD2DFE804F0031C0A
:10080000298FB2C7704800680068B0F1A53F01D0D9
:100810000124F0E70022C8F810703046FFF7A2FF6D
:10082000C8F814703046FFF79DFF521C022AF2DB15
:10083000664D0324DFE72021634C2068FFF798FF13
:100840002168096A884201D10224D4E70424D2E74E
:100850005D4C2068C16961B11030FFF7ACFF012821
:1008600038D02068001DFFF7A6FF012844D00524DA
:10087000C1E7001DFFF79FFF012807D02068103057
:10088000FFF799FF012813D00524B4E70022C8F828
:1008900010703046FFF766FFC8F814703046FFF757
:1008A00061FF521C032AF2DB206845680324A2E79B
:1008B0000022CBF800A03046FFF754FFC9F800A093
:1008C0003046FFF74FFF521C052AF2DB206805690E
:1008D000032490E70022CBF800A03046FFF742FF48
:1008E000C9F800A03046FFF73DFF521C032AF2DB97
:1008F0002068056903247EE70022C8F8107030469E
:10090000FFF730FFC8F814703046FFF72BFF521C7A
:10091000052AF2DB2068456803246CE70822C8F842
:100920001020C8F81070CBF800A0CBF8007002239C
:10093000CBF800303046FFF715FFC8F81420C8F890
:100940001470C9F800A0C9F80070C9F80030204838
:100950002049284008602868FFF702FC6868804743
:1009600049E702220823C8F81430C8F81470C9F8FF
:1009700000A0C9F80070C9F800203046FFF7F2FE69
:10098000CBF800703046FFF7EDFEECE702220823BB
:10099000C8F81430C8F81470C9F800A0C9F800707D
:1009A000C9F800203046FFF7DDFECBF800203046C6
:1009B000FFF7D8FEECE70000400A000800100140F5
:1009C000FFFF0F0010080140140000200020000865
:1009D00080FFFF1F08ED00E040EA01039B0703D002
:1009E00009E008C9121F08C0042AFAD203E011F86E
:1009F000013B00F8013B521EF9D27047064C074DEF
:100A000006E0E06840F0010394E8070098471034DE
:100A1000AC42F6D3FFF790FB800A0008A00A00085A
:100A200002E008C8121F08C1002AFAD170477047B7
:100A3000002001E001C1121F002AFBD17047000015
:100A40001CF2BD4D78E20A50D4D2D376B0C2646BAA
:100A50008CB3613BE8A3D62644930F002083B81DD6
:100A60003C7105A05861B2BDF4516B9B9041DC868E
:100A7000AC30D9D6C8206ECB6410B7ED000000F0C2
:100A8000001800080000002018000000200A0008DC
:100A9000181800081800002000040000300A0008A0
:100AA0000000000000000000000000000000000046
:100AB0000000000000000000000000000000000036
:100AC0000000000000000000000000000000000026
:100AD0000000000000000000000000000000000016
:100FF000000000000000000000000000FFFFFFFFF5
:10100000A5A5A5A50000000000000000000000004C
:1010100000000000000000000000000000000000D0
:1010200000000000000000000000000000000000C0
:1010300000000000000000000000000000000000B0
:1010400000000000000000000000000000000000A0
:1018000002040608000000000102030401020304B0
:0818100006070809001000089A
:0400000508000131BD
:00000001FF
